:060000000A128A11122809
:10000800FE00030EF2000408F3000A08F40083124D
:1000180003137F08F5000A128A1115280A128A119B
:10002800AE2A8C1E182819285128831603138C1EF3
:100038001E281F285128F601831203131A08F000FE
:100048007008F6007608403A031D2B282C283A2819
:10005800A6017608F0002608203E84007008831365
:1000680080000130F0007008A60748287608F000E4
:100078002608203E84007008831380000130F000B9
:100088007008A607482848280C1E4B284C284828E2
:100098004D28760899008C12512883128C1C5528FB
:1000A8005628C829831603138C1C5B285C28C8298A
:1000B800F70183120313061307100612861106119F
:1000C8008610061087120712871107118710222938
:1000D8007908F0007008F70077080F39F000700809
:1000E800F70006179B297908F0007008F7007708D1
:1000F800F00004300310F00CFF3E031D7E2870084A
:100108000F39F1007108F70007149B297A08F000ED
:100118007008F70077080F39F0007008F700061626
:100128009B297A08F0007008F7007708F00004307F
:100138000310F00CFF3E031D9C2870080F39F100D6
:100148007108F70086159B297B08F0007008F700F6
:1001580077080F39F0007008F70006159B297B080F
:10016800F0007008F7007708F00004300310F00C76
:10017800FF3E031DBA2870080F39F1007108F70017
:1001880086149B297C08F0007008F70077080F395F
:10019800F0007008F70006149B297C08F00070082E
:1001A800F7007708F00004300310F00CFF3E031D41
:1001B800D82870080F39F1007108F70087169B29B5
:1001C8007D08F0007008F70077080F39F000700814
:1001D800F70007169B297D08F0007008F7007708DC
:1001E800F00004300310F00CFF3E031DF6287008E1
:1001F8000F39F1007108F70087159B292808F000CE
:100208007008F70077080F39F0007008F700071535
:100218009B292808F0007008F7007708F0000430E0
:100228000310F00CFF3E031D142970080F39F1006C
:100238007108F70087149B299B299B297808003AA5
:1002480003196C28013A03197728033A03198A28F5
:10025800013A03199528073A0319A828013A0319FE
:10026800B328033A0319C628013A0319D1280F3ACB
:100278000319E428013A0319EF28033A031902295C
:10028800013A03190D299B299B2905108510051191
:100298008511861385128616BB290514851005114C
:1002A8008515861785168616BB2905108510051530
:1002B8008511861385168612BB2905108510051130
:1002C8008511861785168612BB2905148510051118
:1002D8008515861785128612BB2905108514051108
:1002E8008511861785128612BB29051085140511FC
:1002F8008511861385128612BB29051085100511F4
:100308008515861785168616BB29051085100511D3
:100318008511861385128612BB29051085100511D3
:100328008511861785128612BB29BB29BB29770838
:10033800003A03194929013A03195129033A0319C3
:100348005929013A03196129073A03196929013A18
:1003580003197129033A03197929013A03198129E3
:100368000F3A03198929013A03199129BB29013048
:10037800F0007008F8070C307802031CC429C5295E
:10038800C629F8018C10C82975088312FF00740863
:100398008A0073088400720E8300FE0E7E0E090028
:1003A8000A128A1108230A128A110A128A11FB22D8
:1003B8000A128A110A128A11D0220A128A11831289
:1003C8000313061707100612861106118610061069
:1003D8008712071287110711871005148514051550
:1003E8008515861785168616F801F901FA01FB01AD
:1003F800A701FC01FD01A801A90191011215B10194
:10040800B2012B308400340883138000840A350835
:100418008000840A36088000840A37088000840A2D
:1004280038088000840A39088000B3011B2A4E303E
:1004380032022030031931020318232A242A2B2AD6
:100448000130B1070318B20A0030B2074E2AB301CF
:1004580006303302031C312A322A352A4B2A4B2A0A
:10046800352A0C1E382A392A352A3A2A33082B3ECF
:1004780084008313000899000130AA002A08B307F2
:1004880006303302031C492A4A2A352A4B2AB1016D
:10049800B2014E2A21083A060319532A542A1B2A64
:1004A8002108AA002A08BA00972A12110613071071
:1004B8000612861106118610061087120712871178
:1004C800071187101B2A910112151B2AF901FA013D
:1004D800FB01A701FC01FD01A801A9011B2A2208B3
:1004E800AA002A08A7002308AA002A08FB00240853
:1004F800AA002A08FA002508AA002A08F9001B2AD7
:100508002208AA002A08A9002308AA002A08A80085
:100518002408AA002A08FD002508AA002A08FC00C9
:100528001B2A1B2A1B2A2108413A0319732A033A5A
:100538000319842A063A0319592A083A0319672A1B
:10054800163A03196A2A1B2A1B2A1B2A1B2A0A1273
:100558008A111228F801F901FA01FB01FC01FD01D9
:10056800A001A101A201A301A401A501A601A7015F
:10057800A801A90183133B30FD000330FE001530AC
:10058800FF00343084000A128A11EC220A128A1100
:1005980083010A128A11D429831603131813981693
:1005A8001812181583120313981718131811981096
:1005B80018164030831603139900831203138C1204
:1005C800831603138C1608007E088A007F088200B1
:1005D8000A128A11E8220A128A118000840A040881
:1005E8007D0603190034FF0A0319FE0AEC2A831258
:1005F80003139210121012139216121292118C10E9
:10060800831603138C1408008316031385018601CF
:10061800870107309C0007309F0081170B178B1745
:100628000800403454344534533454344534FF348A
:02400E0072FF3F
:00000001FF
